{
  "_format": "hh-sol-artifact-1",
  "contractName": "ExamContract",
  "sourceName": "contracts/Exam.sol",
  "abi": [
    {
      "inputs": [
        {
          "internalType": "string",
          "name": "_score",
          "type": "string"
        }
      ],
      "stateMutability": "nonpayable",
      "type": "constructor"
    },
    {
      "anonymous": false,
      "inputs": [
        {
          "indexed": true,
          "internalType": "address",
          "name": "from",
          "type": "address"
        },
        {
          "indexed": false,
          "internalType": "uint256",
          "name": "timestamp",
          "type": "uint256"
        },
        {
          "indexed": false,
          "internalType": "string",
          "name": "score",
          "type": "string"
        }
      ],
      "name": "NewScore",
      "type": "event"
    },
    {
      "inputs": [],
      "name": "getAllScores",
      "outputs": [
        {
          "components": [
            {
              "internalType": "string",
              "name": "score",
              "type": "string"
            },
            {
              "internalType": "address",
              "name": "from",
              "type": "address"
            },
            {
              "internalType": "uint256",
              "name": "datetime",
              "type": "uint256"
            }
          ],
          "internalType": "struct ExamContract.Exam[]",
          "name": "",
          "type": "tuple[]"
        }
      ],
      "stateMutability": "view",
      "type": "function"
    },
    {
      "inputs": [
        {
          "internalType": "string",
          "name": "_newScore",
          "type": "string"
        }
      ],
      "name": "sendScore",
      "outputs": [],
      "stateMutability": "nonpayable",
      "type": "function"
    }
  ],
  "bytecode": "0x60806040523480156200001157600080fd5b5060405162001067380380620010678339818101604052810190620000379190620001cb565b620000836040518060400160405280600d81526020017f5468652073636f72652069732000000000000000000000000000000000000000815250826200008a60201b620004131760201c565b50620003b3565b6200012c8282604051602401620000a392919062000251565b6040516020818303038152906040527f4b5c4277000000000000000000000000000000000000000000000000000000007bffffffffffffffffffffffffffffffffffffffffffffffffffffffff19166020820180517bffffffffffffffffffffffffffffffffffffffffffffffffffffffff83818316178352505050506200013060201b60201c565b5050565b60008151905060006a636f6e736f6c652e6c6f679050602083016000808483855afa5050505050565b6000620001706200016a84620002b5565b6200028c565b9050828152602081018484840111156200018957600080fd5b6200019684828562000307565b509392505050565b600082601f830112620001b057600080fd5b8151620001c284826020860162000159565b91505092915050565b600060208284031215620001de57600080fd5b600082015167ffffffffffffffff811115620001f957600080fd5b62000207848285016200019e565b91505092915050565b60006200021d82620002eb565b620002298185620002f6565b93506200023b81856020860162000307565b6200024681620003a2565b840191505092915050565b600060408201905081810360008301526200026d818562000210565b9050818103602083015262000283818462000210565b90509392505050565b600062000298620002ab565b9050620002a682826200033d565b919050565b6000604051905090565b600067ffffffffffffffff821115620002d357620002d262000373565b5b620002de82620003a2565b9050602081019050919050565b600081519050919050565b600082825260208201905092915050565b60005b83811015620003275780820151818401526020810190506200030a565b8381111562000337576000848401525b50505050565b6200034882620003a2565b810181811067ffffffffffffffff821117156200036a576200036962000373565b5b80604052505050565b7f4e487b7100000000000000000000000000000000000000000000000000000000600052604160045260246000fd5b6000601f19601f8301169050919050565b610ca480620003c36000396000f3fe608060405234801561001057600080fd5b50600436106100365760003560e01c806387d061961461003b578063db88ea1514610059575b600080fd5b610043610075565b60405161005091906108e6565b60405180910390f35b610073600480360381019061006e919061071e565b6101c6565b005b60606001805480602002602001604051908101604052809291908181526020016000905b828210156101bd57838290600052602060002090600302016040518060600160405290816000820180546100cc90610b6d565b80601f01602080910402602001604051908101604052809291908181526020018280546100f890610b6d565b80156101455780601f1061011a57610100808354040283529160200191610145565b820191906000526020600020905b81548152906001019060200180831161012857829003601f168201915b505050505081526020016001820160009054906101000a900473ffffffffffffffffffffffffffffffffffffffff1673ffffffffffffffffffffffffffffffffffffffff1673ffffffffffffffffffffffffffffffffffffffff16815260200160028201548152505081526020019060010190610099565b50505050905090565b6102056040518060400160405280601681526020017f2573206861732073656e742061206d6573736167652100000000000000000000815250336104af565b600160405180606001604052808381526020013373ffffffffffffffffffffffffffffffffffffffff168152602001428152509080600181540180825580915050600190039060005260206000209060030201600090919091909150600082015181600001908051906020019061027d929190610613565b5060208201518160010160006101000a81548173ffffffffffffffffffffffffffffffffffffffff021916908373ffffffffffffffffffffffffffffffffffffffff16021790555060408201518160020155505060016000808282546102e39190610a99565b925050819055506001600260003373ffffffffffffffffffffffffffffffffffffffff1673ffffffffffffffffffffffffffffffffffffffff168152602001908152602001600020600082825461033a9190610a99565b925050819055506103c06040518060400160405280601c81526020017f4e756d626572206f66206578616d73206f66202561202573203e3e200000000081525033600260003373ffffffffffffffffffffffffffffffffffffffff1673ffffffffffffffffffffffffffffffffffffffff1681526020019081526020016000205461054b565b3373ffffffffffffffffffffffffffffffffffffffff167f518a5daedd46dc8e8f03278892585de2f5f5ebfafd65f60e0045bfe69f0ad40842836040516104089291906109ad565b60405180910390a250565b6104ab8282604051602401610429929190610976565b6040516020818303038152906040527f4b5c4277000000000000000000000000000000000000000000000000000000007bffffffffffffffffffffffffffffffffffffffffffffffffffffffff19166020820180517bffffffffffffffffffffffffffffffffffffffffffffffffffffffff83818316178352505050506105ea565b5050565b61054782826040516024016104c5929190610908565b6040516020818303038152906040527f319af333000000000000000000000000000000000000000000000000000000007bffffffffffffffffffffffffffffffffffffffffffffffffffffffff19166020820180517bffffffffffffffffffffffffffffffffffffffffffffffffffffffff83818316178352505050506105ea565b5050565b6105e583838360405160240161056393929190610938565b6040516020818303038152906040527f07c81217000000000000000000000000000000000000000000000000000000007bffffffffffffffffffffffffffffffffffffffffffffffffffffffff19166020820180517bffffffffffffffffffffffffffffffffffffffffffffffffffffffff83818316178352505050506105ea565b505050565b60008151905060006a636f6e736f6c652e6c6f679050602083016000808483855afa5050505050565b82805461061f90610b6d565b90600052602060002090601f0160209004810192826106415760008555610688565b82601f1061065a57805160ff1916838001178555610688565b82800160010185558215610688579182015b8281111561068757825182559160200191906001019061066c565b5b5090506106959190610699565b5090565b5b808211156106b257600081600090555060010161069a565b5090565b60006106c96106c484610a02565b6109dd565b9050828152602081018484840111156106e157600080fd5b6106ec848285610b2b565b509392505050565b600082601f83011261070557600080fd5b81356107158482602086016106b6565b91505092915050565b60006020828403121561073057600080fd5b600082013567ffffffffffffffff81111561074a57600080fd5b610756848285016106f4565b91505092915050565b600061076b8383610878565b905092915050565b61077c81610aef565b82525050565b61078b81610aef565b82525050565b600061079c82610a43565b6107a68185610a66565b9350836020820285016107b885610a33565b8060005b858110156107f457848403895281516107d5858261075f565b94506107e083610a59565b925060208a019950506001810190506107bc565b50829750879550505050505092915050565b600061081182610a4e565b61081b8185610a77565b935061082b818560208601610b3a565b61083481610c5d565b840191505092915050565b600061084a82610a4e565b6108548185610a88565b9350610864818560208601610b3a565b61086d81610c5d565b840191505092915050565b600060608301600083015184820360008601526108958282610806565b91505060208301516108aa6020860182610773565b5060408301516108bd60408601826108c8565b508091505092915050565b6108d181610b21565b82525050565b6108e081610b21565b82525050565b600060208201905081810360008301526109008184610791565b905092915050565b60006040820190508181036000830152610922818561083f565b90506109316020830184610782565b9392505050565b60006060820190508181036000830152610952818661083f565b90506109616020830185610782565b61096e60408301846108d7565b949350505050565b60006040820190508181036000830152610990818561083f565b905081810360208301526109a4818461083f565b90509392505050565b60006040820190506109c260008301856108d7565b81810360208301526109d4818461083f565b90509392505050565b60006109e76109f8565b90506109f38282610b9f565b919050565b6000604051905090565b600067ffffffffffffffff821115610a1d57610a1c610c2e565b5b610a2682610c5d565b9050602081019050919050565b6000819050602082019050919050565b600081519050919050565b600081519050919050565b6000602082019050919050565b600082825260208201905092915050565b600082825260208201905092915050565b600082825260208201905092915050565b6000610aa482610b21565b9150610aaf83610b21565b9250827fffffffffffffffffffffffffffffffffffffffffffffffffffffffffffffffff03821115610ae457610ae3610bd0565b5b828201905092915050565b6000610afa82610b01565b9050919050565b600073ffffffffffffffffffffffffffffffffffffffff82169050919050565b6000819050919050565b82818337600083830152505050565b60005b83811015610b58578082015181840152602081019050610b3d565b83811115610b67576000848401525b50505050565b60006002820490506001821680610b8557607f821691505b60208210811415610b9957610b98610bff565b5b50919050565b610ba882610c5d565b810181811067ffffffffffffffff82111715610bc757610bc6610c2e565b5b80604052505050565b7f4e487b7100000000000000000000000000000000000000000000000000000000600052601160045260246000fd5b7f4e487b7100000000000000000000000000000000000000000000000000000000600052602260045260246000fd5b7f4e487b7100000000000000000000000000000000000000000000000000000000600052604160045260246000fd5b6000601f19601f830116905091905056fea2646970667358221220cda87dbbcedc3ddfeb0f7da3e10ff48d78d3a4ad358c3a17f1ac0816e6b3235564736f6c63430008040033",
  "linkReferences": {},
  "deployedLinkReferences": {}
}